{
  "_format": "hh-sol-artifact-1",
  "contractName": "TicketBooking",
  "sourceName": "src/TicketBooking.sol",
  "abi": [
    {
      "inputs": [
        {
          "internalType": "address",
          "name": "account",
          "type": "address"
        }
      ],
      "name": "balanceOf",
      "outputs": [
        {
          "internalType": "uint256",
          "name": "",
          "type": "uint256"
        }
      ],
      "stateMutability": "view",
      "type": "function"
    },
    {
      "inputs": [
        {
          "internalType": "address",
          "name": "",
          "type": "address"
        }
      ],
      "name": "balances",
      "outputs": [
        {
          "internalType": "uint256",
          "name": "",
          "type": "uint256"
        }
      ],
      "stateMutability": "view",
      "type": "function"
    },
    {
      "inputs": [
        {
          "internalType": "string",
          "name": "_movieName",
          "type": "string"
        },
        {
          "internalType": "uint256",
          "name": "_customerAge",
          "type": "uint256"
        },
        {
          "internalType": "uint256",
          "name": "transfered_amount",
          "type": "uint256"
        }
      ],
      "name": "bookTicket",
      "outputs": [],
      "stateMutability": "payable",
      "type": "function"
    },
    {
      "inputs": [],
      "name": "cancelTicket",
      "outputs": [],
      "stateMutability": "payable",
      "type": "function"
    },
    {
      "inputs": [],
      "name": "checkIn",
      "outputs": [],
      "stateMutability": "nonpayable",
      "type": "function"
    },
    {
      "inputs": [
        {
          "internalType": "address",
          "name": "account",
          "type": "address"
        }
      ],
      "name": "getCheckInStatus",
      "outputs": [
        {
          "internalType": "bool",
          "name": "",
          "type": "bool"
        }
      ],
      "stateMutability": "view",
      "type": "function"
    },
    {
      "inputs": [
        {
          "internalType": "address",
          "name": "",
          "type": "address"
        }
      ],
      "name": "pays",
      "outputs": [
        {
          "internalType": "uint256",
          "name": "",
          "type": "uint256"
        }
      ],
      "stateMutability": "view",
      "type": "function"
    },
    {
      "inputs": [],
      "name": "ticketPrice",
      "outputs": [
        {
          "internalType": "uint256",
          "name": "",
          "type": "uint256"
        }
      ],
      "stateMutability": "view",
      "type": "function"
    },
    {
      "inputs": [
        {
          "internalType": "address",
          "name": "",
          "type": "address"
        }
      ],
      "name": "tickets",
      "outputs": [
        {
          "internalType": "bool",
          "name": "isValidTicket",
          "type": "bool"
        },
        {
          "internalType": "string",
          "name": "movieName",
          "type": "string"
        },
        {
          "internalType": "uint256",
          "name": "customerAge",
          "type": "uint256"
        },
        {
          "internalType": "bool",
          "name": "hasCheckedIn",
          "type": "bool"
        }
      ],
      "stateMutability": "view",
      "type": "function"
    }
  ],
  "bytecode": "0x6080604052662386f26fc1000060005534801561001b57600080fd5b506114a28061002b6000396000f3fe6080604052600436106100865760003560e01c80636dcbf2a3116100595780636dcbf2a31461012657806370a0823114610166578063a7a1bdfa146101a3578063ca36385c146101e0578063d59637e0146101ea57610086565b80631209b1f61461008b578063183ff085146100b657806327e235e3146100cd5780636c2e82dc1461010a575b600080fd5b34801561009757600080fd5b506100a0610227565b6040516100ad9190610af3565b60405180910390f35b3480156100c257600080fd5b506100cb61022d565b005b3480156100d957600080fd5b506100f460048036038101906100ef9190610b80565b6103ad565b6040516101019190610af3565b60405180910390f35b610124600480360381019061011f9190610d1f565b6103c5565b005b34801561013257600080fd5b5061014d60048036038101906101489190610b80565b61071e565b60405161015d9493929190610e28565b60405180910390f35b34801561017257600080fd5b5061018d60048036038101906101889190610b80565b6107f0565b60405161019a9190610af3565b60405180910390f35b3480156101af57600080fd5b506101ca60048036038101906101c59190610b80565b610839565b6040516101d79190610e74565b60405180910390f35b6101e8610892565b005b3480156101f657600080fd5b50610211600480360381019061020c9190610b80565b610ac2565b60405161021e9190610af3565b60405180910390f35b60005481565b33600360008273ffffffffffffffffffffffffffffffffffffffff1673ffffffffffffffffffffffffffffffffffffffff16815260200190815260200160002060030160009054906101000a900460ff16156102be576040517f08c379a00000000000000000000000000000000000000000000000000000000081526004016102b590610edb565b60405180910390fd5b33600360008273ffffffffffffffffffffffffffffffffffffffff1673ffffffffffffffffffffffffffffffffffffffff16815260200190815260200160002060000160009054906101000a900460ff1661034e576040517f08c379a000000000000000000000000000000000000000000000000000000000815260040161034590610f47565b60405180910390fd5b6001600360003373ffffffffffffffffffffffffffffffffffffffff1673ffffffffffffffffffffffffffffffffffffffff16815260200190815260200160002060030160006101000a81548160ff0219169083151502179055505050565b60016020528060005260406000206000915090505481565b33600360008273ffffffffffffffffffffffffffffffffffffffff1673ffffffffffffffffffffffffffffffffffffffff16815260200190815260200160002060000160009054906101000a900460ff16158061046e5750600360008273ffffffffffffffffffffffffffffffffffffffff1673ffffffffffffffffffffffffffffffffffffffff16815260200190815260200160002060030160009054906101000a900460ff165b6104ad576040517f08c379a00000000000000000000000000000000000000000000000000000000081526004016104a490610fd9565b60405180910390fd5b8383600082511180156104c1575060128110155b610500576040517f08c379a00000000000000000000000000000000000000000000000000000000081526004016104f79061106b565b60405180910390fd5b3384600054600160008473ffffffffffffffffffffffffffffffffffffffff1673ffffffffffffffffffffffffffffffffffffffff168152602001908152602001600020548261055091906110ba565b11610590576040517f08c379a00000000000000000000000000000000000000000000000000000000081526004016105879061113a565b60405180910390fd5b604051806080016040528060011515815260200189815260200188815260200160001515815250600360003373ffffffffffffffffffffffffffffffffffffffff1673ffffffffffffffffffffffffffffffffffffffff16815260200190815260200160002060008201518160000160006101000a81548160ff021916908315150217905550602082015181600101908161062b9190611366565b506040820151816002015560608201518160030160006101000a81548160ff021916908315150217905550905050600054866106679190611438565b600160003373ffffffffffffffffffffffffffffffffffffffff1673ffffffffffffffffffffffffffffffffffffffff16815260200190815260200160002060008282546106b591906110ba565b92505081905550600054600260003373ffffffffffffffffffffffffffffffffffffffff1673ffffffffffffffffffffffffffffffffffffffff168152602001908152602001600020600082825461070d91906110ba565b925050819055505050505050505050565b60036020528060005260406000206000915090508060000160009054906101000a900460ff169080600101805461075490611189565b80601f016020809104026020016040519081016040528092919081815260200182805461078090611189565b80156107cd5780601f106107a2576101008083540402835291602001916107cd565b820191906000526020600020905b8154815290600101906020018083116107b057829003601f168201915b5050505050908060020154908060030160009054906101000a900460ff16905084565b6000600160008373ffffffffffffffffffffffffffffffffffffffff1673ffffffffffffffffffffffffffffffffffffffff168152602001908152602001600020549050919050565b6000600360008373ffffffffffffffffffffffffffffffffffffffff1673ffffffffffffffffffffffffffffffffffffffff16815260200190815260200160002060030160009054906101000a900460ff169050919050565b33600360008273ffffffffffffffffffffffffffffffffffffffff1673ffffffffffffffffffffffffffffffffffffffff16815260200190815260200160002060000160009054906101000a900460ff16610922576040517f08c379a000000000000000000000000000000000000000000000000000000000815260040161091990610f47565b60405180910390fd5b33600360008273ffffffffffffffffffffffffffffffffffffffff1673ffffffffffffffffffffffffffffffffffffffff16815260200190815260200160002060030160009054906101000a900460ff16156109b3576040517f08c379a00000000000000000000000000000000000000000000000000000000081526004016109aa90610edb565b60405180910390fd5b6000600360003373ffffffffffffffffffffffffffffffffffffffff1673ffffffffffffffffffffffffffffffffffffffff16815260200190815260200160002060000160006101000a81548160ff021916908315150217905550600054600160003373ffffffffffffffffffffffffffffffffffffffff1673ffffffffffffffffffffffffffffffffffffffff1681526020019081526020016000206000828254610a5f91906110ba565b92505081905550600054600260003373ffffffffffffffffffffffffffffffffffffffff1673ffffffffffffffffffffffffffffffffffffffff1681526020019081526020016000206000828254610ab79190611438565b925050819055505050565b60026020528060005260406000206000915090505481565b6000819050919050565b610aed81610ada565b82525050565b6000602082019050610b086000830184610ae4565b92915050565b6000604051905090565b600080fd5b600080fd5b600073ffffffffffffffffffffffffffffffffffffffff82169050919050565b6000610b4d82610b22565b9050919050565b610b5d81610b42565b8114610b6857600080fd5b50565b600081359050610b7a81610b54565b92915050565b600060208284031215610b9657610b95610b18565b5b6000610ba484828501610b6b565b91505092915050565b600080fd5b600080fd5b6000601f19601f8301169050919050565b7f4e487b7100000000000000000000000000000000000000000000000000000000600052604160045260246000fd5b610c0082610bb7565b810181811067ffffffffffffffff82111715610c1f57610c1e610bc8565b5b80604052505050565b6000610c32610b0e565b9050610c3e8282610bf7565b919050565b600067ffffffffffffffff821115610c5e57610c5d610bc8565b5b610c6782610bb7565b9050602081019050919050565b82818337600083830152505050565b6000610c96610c9184610c43565b610c28565b905082815260208101848484011115610cb257610cb1610bb2565b5b610cbd848285610c74565b509392505050565b600082601f830112610cda57610cd9610bad565b5b8135610cea848260208601610c83565b91505092915050565b610cfc81610ada565b8114610d0757600080fd5b50565b600081359050610d1981610cf3565b92915050565b600080600060608486031215610d3857610d37610b18565b5b600084013567ffffffffffffffff811115610d5657610d55610b1d565b5b610d6286828701610cc5565b9350506020610d7386828701610d0a565b9250506040610d8486828701610d0a565b9150509250925092565b60008115159050919050565b610da381610d8e565b82525050565b600081519050919050565b600082825260208201905092915050565b60005b83811015610de3578082015181840152602081019050610dc8565b60008484015250505050565b6000610dfa82610da9565b610e048185610db4565b9350610e14818560208601610dc5565b610e1d81610bb7565b840191505092915050565b6000608082019050610e3d6000830187610d9a565b8181036020830152610e4f8186610def565b9050610e5e6040830185610ae4565b610e6b6060830184610d9a565b95945050505050565b6000602082019050610e896000830184610d9a565b92915050565b7f437573746f6d657220616c726561647920636865636b656420696e2100000000600082015250565b6000610ec5601c83610db4565b9150610ed082610e8f565b602082019050919050565b60006020820190508181036000830152610ef481610eb8565b9050919050565b7f4e6f2076616c6964207469636b65742100000000000000000000000000000000600082015250565b6000610f31601083610db4565b9150610f3c82610efb565b602082019050919050565b60006020820190508181036000830152610f6081610f24565b9050919050565b7f43616e6e6f7420626f6f6b207469636b65743a204861766520612076616c696460008201527f207469636b6574206f72206e6f7420636865636b656420696e20796574210000602082015250565b6000610fc3603e83610db4565b9150610fce82610f67565b604082019050919050565b60006020820190508181036000830152610ff281610fb6565b9050919050565b7f496e76616c6964207469636b657420696e666f3a20656d707479206d6f76696560008201527f206e616d65206f7220637573746f6d657220616765203c203138000000000000602082015250565b6000611055603a83610db4565b915061106082610ff9565b604082019050919050565b6000602082019050818103600083015261108481611048565b9050919050565b7f4e487b7100000000000000000000000000000000000000000000000000000000600052601160045260246000fd5b60006110c582610ada565b91506110d083610ada565b92508282019050808211156110e8576110e761108b565b5b92915050565b7f4e6f7420656e6f7567682062616c616e63652100000000000000000000000000600082015250565b6000611124601383610db4565b915061112f826110ee565b602082019050919050565b6000602082019050818103600083015261115381611117565b9050919050565b7f4e487b7100000000000000000000000000000000000000000000000000000000600052602260045260246000fd5b600060028204905060018216806111a157607f821691505b6020821081036111b4576111b361115a565b5b50919050565b60008190508160005260206000209050919050565b60006020601f8301049050919050565b600082821b905092915050565b60006008830261121c7fffffffffffffffffffffffffffffffffffffffffffffffffffffffffffffffff826111df565b61122686836111df565b95508019841693508086168417925050509392505050565b6000819050919050565b600061126361125e61125984610ada565b61123e565b610ada565b9050919050565b6000819050919050565b61127d83611248565b6112916112898261126a565b8484546111ec565b825550505050565b600090565b6112a6611299565b6112b1818484611274565b505050565b5b818110156112d5576112ca60008261129e565b6001810190506112b7565b5050565b601f82111561131a576112eb816111ba565b6112f4846111cf565b81016020851015611303578190505b61131761130f856111cf565b8301826112b6565b50505b505050565b600082821c905092915050565b600061133d6000198460080261131f565b1980831691505092915050565b6000611356838361132c565b9150826002028217905092915050565b61136f82610da9565b67ffffffffffffffff81111561138857611387610bc8565b5b6113928254611189565b61139d8282856112d9565b600060209050601f8311600181146113d057600084156113be578287015190505b6113c8858261134a565b865550611430565b601f1984166113de866111ba565b60005b82811015611406578489015182556001820191506020850194506020810190506113e1565b86831015611423578489015161141f601f89168261132c565b8355505b6001600288020188555050505b505050505050565b600061144382610ada565b915061144e83610ada565b92508282039050818111156114665761146561108b565b5b9291505056fea2646970667358221220336e827fcf5b9cef083b40fe4f43112d78eabb3d4720786ad0ca5badf8b4dd2164736f6c63430008110033",
  "linkReferences": {},
  "deployedLinkReferences": {}
}