{
  "_format": "hh-sol-artifact-1",
  "contractName": "Ethazon",
  "sourceName": "src/Ethazon.sol",
  "abi": [
    {
      "inputs": [
        {
          "internalType": "address",
          "name": "",
          "type": "address"
        }
      ],
      "name": "balances",
      "outputs": [
        {
          "internalType": "uint256",
          "name": "",
          "type": "uint256"
        }
      ],
      "stateMutability": "view",
      "type": "function"
    },
    {
      "inputs": [],
      "name": "cancelOrder",
      "outputs": [],
      "stateMutability": "payable",
      "type": "function"
    },
    {
      "inputs": [],
      "name": "confirmOrder",
      "outputs": [],
      "stateMutability": "nonpayable",
      "type": "function"
    },
    {
      "inputs": [
        {
          "internalType": "string",
          "name": "_customerName",
          "type": "string"
        },
        {
          "internalType": "string",
          "name": "_shippingAddress",
          "type": "string"
        }
      ],
      "name": "makeOrder",
      "outputs": [],
      "stateMutability": "payable",
      "type": "function"
    },
    {
      "inputs": [],
      "name": "orderPrice",
      "outputs": [
        {
          "internalType": "uint256",
          "name": "",
          "type": "uint256"
        }
      ],
      "stateMutability": "view",
      "type": "function"
    },
    {
      "inputs": [
        {
          "internalType": "address",
          "name": "",
          "type": "address"
        }
      ],
      "name": "orders",
      "outputs": [
        {
          "internalType": "bool",
          "name": "isValidEthazonOrder",
          "type": "bool"
        },
        {
          "internalType": "string",
          "name": "customerName",
          "type": "string"
        },
        {
          "internalType": "string",
          "name": "shippingAddress",
          "type": "string"
        },
        {
          "internalType": "bool",
          "name": "hasConfirmed",
          "type": "bool"
        }
      ],
      "stateMutability": "view",
      "type": "function"
    },
    {
      "inputs": [],
      "name": "withdraw",
      "outputs": [],
      "stateMutability": "nonpayable",
      "type": "function"
    }
  ],
  "bytecode": "0x608060405267016345785d8a000060005534801561001c57600080fd5b506114508061002c6000396000f3fe6080604052600436106100705760003560e01c80636a8165481161004e5780636a816548146100f4578063a00f198a146100fe578063dc4c9e9514610115578063f40e84711461013157610070565b80631b24f76d1461007557806327e235e3146100a05780633ccfd60b146100dd575b600080fd5b34801561008157600080fd5b5061008a610171565b6040516100979190610ab8565b60405180910390f35b3480156100ac57600080fd5b506100c760048036038101906100c29190610b45565b610177565b6040516100d49190610ab8565b60405180910390f35b3480156100e957600080fd5b506100f261018f565b005b6100fc6102e4565b005b34801561010a57600080fd5b50610113610525565b005b61012f600480360381019061012a9190610cb8565b6106a5565b005b34801561013d57600080fd5b5061015860048036038101906101539190610b45565b610945565b6040516101689493929190610dca565b60405180910390f35b60005481565b60016020528060005260406000206000915090505481565b6000600160003373ffffffffffffffffffffffffffffffffffffffff1673ffffffffffffffffffffffffffffffffffffffff1681526020019081526020016000205411610211576040517f08c379a000000000000000000000000000000000000000000000000000000000815260040161020890610e69565b60405180910390fd5b6000600160003373ffffffffffffffffffffffffffffffffffffffff1673ffffffffffffffffffffffffffffffffffffffff1681526020019081526020016000205490506000600160003373ffffffffffffffffffffffffffffffffffffffff1673ffffffffffffffffffffffffffffffffffffffff168152602001908152602001600020819055503373ffffffffffffffffffffffffffffffffffffffff166108fc829081150290604051600060405180830381858888f193505050501580156102e0573d6000803e3d6000fd5b5050565b33600260008273ffffffffffffffffffffffffffffffffffffffff1673ffffffffffffffffffffffffffffffffffffffff16815260200190815260200160002060000160009054906101000a900460ff16610374576040517f08c379a000000000000000000000000000000000000000000000000000000000815260040161036b90610ed5565b60405180910390fd5b600260003373ffffffffffffffffffffffffffffffffffffffff1673ffffffffffffffffffffffffffffffffffffffff16815260200190815260200160002060030160009054906101000a900460ff1615610429576000600260003373ffffffffffffffffffffffffffffffffffffffff1673ffffffffffffffffffffffffffffffffffffffff16815260200190815260200160002060030160006101000a81548160ff021916908315150217905550610522565b6000600260003373ffffffffffffffffffffffffffffffffffffffff1673ffffffffffffffffffffffffffffffffffffffff16815260200190815260200160002060000160006101000a81548160ff02191690831515021790555034600160003073ffffffffffffffffffffffffffffffffffffffff1673ffffffffffffffffffffffffffffffffffffffff16815260200190815260200160002060008282546104d39190610f24565b925050819055503373ffffffffffffffffffffffffffffffffffffffff166108fc349081150290604051600060405180830381858888f19350505050158015610520573d6000803e3d6000fd5b505b50565b33600260008273ffffffffffffffffffffffffffffffffffffffff1673ffffffffffffffffffffffffffffffffffffffff16815260200190815260200160002060000160009054906101000a900460ff166105b5576040517f08c379a00000000000000000000000000000000000000000000000000000000081526004016105ac90610ed5565b60405180910390fd5b33600260008273ffffffffffffffffffffffffffffffffffffffff1673ffffffffffffffffffffffffffffffffffffffff16815260200190815260200160002060030160009054906101000a900460ff1615610646576040517f08c379a000000000000000000000000000000000000000000000000000000000815260040161063d90610fa4565b60405180910390fd5b6001600260003373ffffffffffffffffffffffffffffffffffffffff1673ffffffffffffffffffffffffffffffffffffffff16815260200190815260200160002060030160006101000a81548160ff0219169083151502179055505050565b33600260008273ffffffffffffffffffffffffffffffffffffffff1673ffffffffffffffffffffffffffffffffffffffff16815260200190815260200160002060000160009054906101000a900460ff16158061074e5750600260008273ffffffffffffffffffffffffffffffffffffffff1673ffffffffffffffffffffffffffffffffffffffff16815260200190815260200160002060030160009054906101000a900460ff165b61078d576040517f08c379a000000000000000000000000000000000000000000000000000000000815260040161078490611010565b60405180910390fd5b60008351116107d1576040517f08c379a00000000000000000000000000000000000000000000000000000000081526004016107c89061107c565b60405180910390fd5b6000825111610815576040517f08c379a000000000000000000000000000000000000000000000000000000000815260040161080c906110e8565b60405180910390fd5b604051806080016040528060011515815260200184815260200183815260200160001515815250600260003373ffffffffffffffffffffffffffffffffffffffff1673ffffffffffffffffffffffffffffffffffffffff16815260200190815260200160002060008201518160000160006101000a81548160ff02191690831515021790555060208201518160010190816108b09190611314565b5060408201518160020190816108c69190611314565b5060608201518160030160006101000a81548160ff02191690831515021790555090505034600160003073ffffffffffffffffffffffffffffffffffffffff1673ffffffffffffffffffffffffffffffffffffffff168152602001908152602001600020600082825461093991906113e6565b92505081905550505050565b60026020528060005260406000206000915090508060000160009054906101000a900460ff169080600101805461097b90611137565b80601f01602080910402602001604051908101604052809291908181526020018280546109a790611137565b80156109f45780601f106109c9576101008083540402835291602001916109f4565b820191906000526020600020905b8154815290600101906020018083116109d757829003601f168201915b505050505090806002018054610a0990611137565b80601f0160208091040260200160405190810160405280929190818152602001828054610a3590611137565b8015610a825780601f10610a5757610100808354040283529160200191610a82565b820191906000526020600020905b815481529060010190602001808311610a6557829003601f168201915b5050505050908060030160009054906101000a900460ff16905084565b6000819050919050565b610ab281610a9f565b82525050565b6000602082019050610acd6000830184610aa9565b92915050565b6000604051905090565b600080fd5b600080fd5b600073ffffffffffffffffffffffffffffffffffffffff82169050919050565b6000610b1282610ae7565b9050919050565b610b2281610b07565b8114610b2d57600080fd5b50565b600081359050610b3f81610b19565b92915050565b600060208284031215610b5b57610b5a610add565b5b6000610b6984828501610b30565b91505092915050565b600080fd5b600080fd5b6000601f19601f8301169050919050565b7f4e487b7100000000000000000000000000000000000000000000000000000000600052604160045260246000fd5b610bc582610b7c565b810181811067ffffffffffffffff82111715610be457610be3610b8d565b5b80604052505050565b6000610bf7610ad3565b9050610c038282610bbc565b919050565b600067ffffffffffffffff821115610c2357610c22610b8d565b5b610c2c82610b7c565b9050602081019050919050565b82818337600083830152505050565b6000610c5b610c5684610c08565b610bed565b905082815260208101848484011115610c7757610c76610b77565b5b610c82848285610c39565b509392505050565b600082601f830112610c9f57610c9e610b72565b5b8135610caf848260208601610c48565b91505092915050565b60008060408385031215610ccf57610cce610add565b5b600083013567ffffffffffffffff811115610ced57610cec610ae2565b5b610cf985828601610c8a565b925050602083013567ffffffffffffffff811115610d1a57610d19610ae2565b5b610d2685828601610c8a565b9150509250929050565b60008115159050919050565b610d4581610d30565b82525050565b600081519050919050565b600082825260208201905092915050565b60005b83811015610d85578082015181840152602081019050610d6a565b60008484015250505050565b6000610d9c82610d4b565b610da68185610d56565b9350610db6818560208601610d67565b610dbf81610b7c565b840191505092915050565b6000608082019050610ddf6000830187610d3c565b8181036020830152610df18186610d91565b90508181036040830152610e058185610d91565b9050610e146060830184610d3c565b95945050505050565b7f4e6f2062616c616e636520746f20776974686472617700000000000000000000600082015250565b6000610e53601683610d56565b9150610e5e82610e1d565b602082019050919050565b60006020820190508181036000830152610e8281610e46565b9050919050565b7f4e6f2076616c6964206f72646572000000000000000000000000000000000000600082015250565b6000610ebf600e83610d56565b9150610eca82610e89565b602082019050919050565b60006020820190508181036000830152610eee81610eb2565b9050919050565b7f4e487b7100000000000000000000000000000000000000000000000000000000600052601160045260246000fd5b6000610f2f82610a9f565b9150610f3a83610a9f565b9250828203905081811115610f5257610f51610ef5565b5b92915050565b7f4f7264657220616c726561647920636f6e6669726d6564000000000000000000600082015250565b6000610f8e601783610d56565b9150610f9982610f58565b602082019050919050565b60006020820190508181036000830152610fbd81610f81565b9050919050565b7f43616e6e6f74206d616b6520616e6f74686572206f7264657200000000000000600082015250565b6000610ffa601983610d56565b915061100582610fc4565b602082019050919050565b6000602082019050818103600083015261102981610fed565b9050919050565b7f437573746f6d6572206e616d652063616e6e6f7420626520656d707479000000600082015250565b6000611066601d83610d56565b915061107182611030565b602082019050919050565b6000602082019050818103600083015261109581611059565b9050919050565b7f5368697070696e6720616464726573732063616e6e6f7420626520656d707479600082015250565b60006110d2602083610d56565b91506110dd8261109c565b602082019050919050565b60006020820190508181036000830152611101816110c5565b9050919050565b7f4e487b7100000000000000000000000000000000000000000000000000000000600052602260045260246000fd5b6000600282049050600182168061114f57607f821691505b60208210810361116257611161611108565b5b50919050565b60008190508160005260206000209050919050565b60006020601f8301049050919050565b600082821b905092915050565b6000600883026111ca7fffffffffffffffffffffffffffffffffffffffffffffffffffffffffffffffff8261118d565b6111d4868361118d565b95508019841693508086168417925050509392505050565b6000819050919050565b600061121161120c61120784610a9f565b6111ec565b610a9f565b9050919050565b6000819050919050565b61122b836111f6565b61123f61123782611218565b84845461119a565b825550505050565b600090565b611254611247565b61125f818484611222565b505050565b5b818110156112835761127860008261124c565b600181019050611265565b5050565b601f8211156112c85761129981611168565b6112a28461117d565b810160208510156112b1578190505b6112c56112bd8561117d565b830182611264565b50505b505050565b600082821c905092915050565b60006112eb600019846008026112cd565b1980831691505092915050565b600061130483836112da565b9150826002028217905092915050565b61131d82610d4b565b67ffffffffffffffff81111561133657611335610b8d565b5b6113408254611137565b61134b828285611287565b600060209050601f83116001811461137e576000841561136c578287015190505b61137685826112f8565b8655506113de565b601f19841661138c86611168565b60005b828110156113b45784890151825560018201915060208501945060208101905061138f565b868310156113d157848901516113cd601f8916826112da565b8355505b6001600288020188555050505b505050505050565b60006113f182610a9f565b91506113fc83610a9f565b925082820190508082111561141457611413610ef5565b5b9291505056fea26469706673582212207126d782745186b61440adc31beff3787c7e9217177cf2beada9cdd45fd1eb6964736f6c63430008110033",
  "linkReferences": {},
  "deployedLinkReferences": {}
}